S01D00004C65645F626C696E6B696E675F6B6579626F6172642E7372656395
S11300000C942A000C9447000C9447000C9447006D
S11300100C9447000C9447000C9447000C94470040
S11300200C9447000C9447000C9447000C94470030
S11300300C9447000C9447000C9447000C94470020
S11300400C9447000C9447000C9447000C94470010
S11300500C94470011241FBECFE5D4E0DEBFCDBF12
S113006010E0A0E6B0E0E4EFF0E002C005900D92ED
S1130070A036B107D9F710E0A0E6B0E001C01D92A8
S1130080A036B107E1F70E9459000C9478000C9453
S1130090000087E689B910BC86E880BD88E18AB98A
S11300A008955D9BFECF8CB908955F9BFECF8CB104
S11300B008958FEF87BB0E94490003E01CE0D0E362
S11300C0C0EC0E945500863611F0863409F408BB52
S11300D0823611F0823409F418BB8C3611F08C345A
S11300E009F4D8BB823711F0823559F7C8BBE9CF80
S10700F0F894FFCFAE
S9030000FC
